:100000000C947A000C94A2000C94A2000C94A20010
:100010000C94A2000C94A2000C94A2000C94A200D8
:100020000C94A2000C94A2000C94A2000C94A200C8
:100030000C94A2000C94A2000C94A2000C94A200B8
:100040000C9431050C94A2000C9402070C945407F4
:100050000C94A2000C94A2000C94A2000C94A20098
:100060000C9482030C94A200646F6E6500496E6963
:100070007469616C697A696E67204951533236330D
:1000800020546F7563682053656E736F722E2E2E29
:100090000000000000240027002A000000000025C6
:1000A0000028002B00000000002300260029000487
:1000B000040404040404040202020202020303030F
:1000C0000303030102040810204080010204081009
:1000D00020010204081020000000070002010000B7
:1000E0000304060000000000000000008F0122024F
:1000F000C308880111241FBECFEFD8E0DEBFCDBFFB
:1001000011E0A0E0B1E0E6EBF5E102C005900D9250
:10011000AA36B107D9F712E0AAE6B1E001C01D92F4
:10012000A93EB107E1F710E0C2EFD0E004C022978A
:10013000FE010E94CA0ACC3ED107C9F70E941909E4
:100140000C94CE0A0C94000008958CEB91E060E0D2
:100150000E949A020895CF93DF93EC018CEB91E01B
:100160000E94BE0265E070E080E090E00E9487059A
:1001700001C000008A810E94AE060197D1F38881F8
:1001800060E00E945A068CEB91E06B810E94E801CE
:10019000DF91CF910895EF92FF920F931F93CF932A
:1001A000DF938C01F62EEA01E22E0E94AB008CEB6D
:1001B00091E06F2D0E946A02C8010E94A5008CEB9D
:1001C00091E0F80163814E2D0E94BA0200E009C05F
:1001D0008CEB91E00E94FB01FE01E00FF11D80839A
:1001E0000F5F8CEB91E00E94F201892B89F7DF9180
:1001F000CF911F910F91FF90EF90089587EC92E0BF
:1002000060E071E00E944D0A0895CF92DF92FF9264
:100210000F931F93DF93CF93CDB7DEB7CDB6DEB686
:1002200000D00DB71EB70F5F1F4F63E0A80122E09B
:100230000E94CB00F801F08087EC92E06F2D42E045
:1002400050E00E94380A87EC92E06AE171E00E9477
:100250004A0A87EC92E0F80160814AE050E00E948F
:10026000380AF4E0FF1510F000E00DC087EC92E0D2
:100270006AE171E00E944A0A87EC92E06CE171E069
:100280000E944A0A01E087EC92E064E271E00E9479
:100290004D0A802F0FB6F894DEBE0FBECDBECF91B3
:1002A000DF911F910F91FF90DF90CF900895EF9213
:1002B000FF920F937C01822FF70160834183228399
:1002C000038360E00E941B06F701808161E00E94C9
:1002D0001B060F91FF90EF9008950F9381309105C9
:1002E00061F46F5F7F4F91F482E791E065E044E055
:1002F00024E004E40E94570109C0892B39F46F5FA0
:100300007F4F21F482E791E00E94A4000F910895AD
:1003100080E090E06FEF7FEF0E946D01089581E033
:1003200090E06FEF7FEF0E946D0108950E947905C4
:1003300060936A0170936B0180936C0190936D01DF
:1003400020916E0130916F014091700150917101C7
:100350002617370748075907F0F482E791E00E9413
:1003600005018091480190914901A0E0B0E0209101
:100370006A0130916B0140916C0150916D01820FC7
:10038000931FA41FB51F80936E0190936F01A093DC
:100390007001B093710108950F931F9307EC12E061
:1003A000C80140E052EC61E070E00E948F07C80194
:1003B0006DE670E00E94520982E791E00E94FE0023
:1003C000C80168E670E00E9495091F910F91089599
:1003D00081E08093BB01609398011092B901109263
:1003E000BA0108952091970130E080919601281B71
:1003F0003109C901089540919601809197014817EC
:1004000018F02FEF3FEF0AC0E42FF0E0EA58FE4F5C
:100410008081282F30E04F5F40939601C9010895F5
:10042000E091960180919701E81718F0EFEFFFEF48
:1004300006C0F0E0EA58FE4F8081E82FF0E0CF01DF
:10044000089508951092BF011092BE0188EE93E0C6
:10045000A0E0B0E08093C0019093C101A093C201DD
:10046000B093C3018EE491E09093BD018093BC01F1
:100470000895CF92DF92EF92FF920F931F93CF9345
:10048000DF937C016B018A018091BB018823A1F07D
:10049000C0E0D0E00DC0D701ED91FC91D601AC0FCA
:1004A000BD1F0190F081E02DC7016C910995219647
:1004B000C017D10780F304C0CB01642F0E946703EB
:1004C000C801DF91CF911F910F91FF90EF90DF90C6
:1004D000CF900895DF93CF930F92CDB7DEB7FC0195
:1004E00069838091BB018823C9F08091BA01803271
:1004F00038F081E090E09383828320E030E015C003
:100500008091B901E82FF0E0E756FE4F9981908382
:100510008F5F8093B9018093BA0105C0CE01019627
:1005200061E00E94670321E030E0C9010F90CF91A4
:10053000DF9108950F93062F8091980169E971E08A
:100540004091BA0121E00E9412031092B901109269
:10055000BA011092BB010F910895413208F040E2B8
:10056000862F66E771E00E94C9021092960180937F
:100570009701089521E00E94AD020895109296011E
:10058000109297011092B9011092BA010E941305BE
:100590000895382F413210F040E042C08091C801E8
:1005A0008823E1F791E09093C8012093CA018FEF6F
:1005B000809335021092F00141504093F1014F5F5A
:1005C0009093C9018091C901330F832B8093C90196
:1005D0008091CB01813041F41092CB018091C9010F
:1005E0008093BB0085EC01C085EE8093BC008091B8
:1005F000C8018130E1F38091F001841710F440913B
:10060000F00120E030E00AC0FB01E20FF31FD90146
:10061000A053BE4F8C9180832F5F3F4F2417A0F3D0
:10062000842F08950F931F93582F122F413210F0EB
:1006300081E04AC08091C8018823E1F782E080937D
:10064000C8010093CA018FEF809335021092F00128
:100650004093F101A0EDB1E0FB0102C081918D93C7
:100660008E2F861B8417D0F31092C9018091C90187
:10067000550F852B8093C9018091CB01813041F4C6
:100680001092CB018091C9018093BB0085EC01C021
:1006900085EE8093BC00112321F08091C801823047
:1006A000E1F3809135028F3F11F480E00DC080911D
:1006B0003502803211F482E007C080913502803328
:1006C00011F084E001C083E01F910F910895482F3D
:1006D000613210F081E008958091C801843011F0FA
:1006E00082E0089560931302A2EFB1E0842F9C0191
:1006F000F90102C081918D938E2F841B8617D0F350
:1007000080E008951F920F920FB60F9211242F933D
:100710003F934F935F936F937F938F939F93AF9389
:10072000BF93EF93FF938091B90090E0887F907022
:100730008036910509F4F2C081369105CCF58832F6
:10074000910509F47BC089329105B4F4803191059B
:1007500009F46FC0813191053CF4009709F447C159
:10076000089709F04FC165C08831910509F466C04A
:10077000809709F047C182C08034910509F4A4C074
:100780008134910544F48033910509F482C0C897FF
:1007900009F038C189C08035910509F489C08835D0
:1007A000910509F496C08834910509F02BC1AEC0BB
:1007B0008839910509F413C189399105ECF488371A
:1007C000910509F4ABC0893791054CF48836910541
:1007D00009F4A4C08037910509F014C19FC088387E
:1007E000910509F4FCC08039910509F49DC0803859
:1007F000910509F007C198C0803B910509F4C6C076
:10080000813B91054CF4803A910509F49FC0883AE8
:10081000910509F0F7C0BAC0803C910509F4E3C026
:10082000883C910509F4DFC0883B910509F0EAC0D6
:10083000C2C08091C9018093BB00CFC09091F001EC
:100840008091F101981768F49091F001E92FF0E0A0
:10085000E053FE4F80818093BB009F5F9093F00137
:10086000BCC08091CA01882309F44BC085ED8093F8
:10087000BC008091BC0084FDFCCFC2C080E28093AC
:10088000350285ED8093BC008091BC0084FDFCCFD7
:10089000B7C080E38093350285ED8093BC008091E2
:1008A000BC0084FDFCCFACC088E3809335029BC0C4
:1008B0008091F0019091BB00E82FF0E0E053FE4FF3
:1008C00090838F5F8093F0019091F0018091F1010E
:1008D00082C08091F0019091BB00E82FF0E0E053DE
:1008E000FE4F90838F5F8093F0018091CA0188232F
:1008F00041F085ED8093BC008091BC0084FDFCCF6D
:100900007FC081E08093CB0184EA6EC085ED809347
:10091000BC008091BC0084FDFCCF72C083E080935A
:10092000C8011092340259C080913402803208F01C
:1009300056C0809134029091BB00E82FF0E0EC5E4D
:10094000FD4F90838F5F8093340247C080913402C3
:10095000803230F4E0913402F0E0EC5EFD4F108222
:1009600085ED8093BC008091BC0084FDFCCF10928B
:10097000C80160913402E091CE01F091CF0184E191
:1009800092E070E00995109234022DC084E08093CB
:10099000C8011092120210921302E091CC01F09162
:1009A000CD01099580911302882329F481E0809379
:1009B00013021092F20190911202E92FF0E0EE5032
:1009C000FE4F80818093BB009F5F909312029091B5
:1009D000120280911302981710F485EC01C085E88B
:1009E0008093BC000FC085EC8093BC0009C01092BE
:1009F000350285ED8093BC008091BC0084FDFCCF66
:100A00001092C801FF91EF91BF91AF919F918F918B
:100A10007F916F915F914F913F912F910F900FBEFA
:100A20000F901F9018951092C80181E08093CA0121
:100A30001092CB0182E161E00E945A0683E161E0FD
:100A40000E945A06E9EBF0E080818E7F80838081EE
:100A50008D7F808388E48093B80085E48093BC0018
:100A600008951F920F920FB60F9211242F933F9368
:100A70008F939F93AF93BF9380913A0290913B02E3
:100A8000A0913C02B0913D0230913E020196A11D21
:100A9000B11D232F2D5F2D3720F02D570196A11D5D
:100AA000B11D20933E0280933A0290933B02A093A3
:100AB0003C02B0933D028091360290913702A091A2
:100AC0003802B09139020196A11DB11D8093360202
:100AD00090933702A0933802B0933902BF91AF913F
:100AE0009F918F913F912F910F900FBE0F901F906C
:100AF00018958FB7F89420913A0230913B024091BB
:100B00003C0250913D028FBFB901CA0108959B017B
:100B1000AC017FB7F8948091360290913702A09192
:100B20003802B091390266B5A89B05C06F3F19F035
:100B30000196A11DB11D7FBFBA2FA92F982F88271D
:100B4000860F911DA11DB11D62E0880F991FAA1F7C
:100B5000BB1F6A95D1F7BC012DC0FFB7F8948091F7
:100B6000360290913702A0913802B0913902E6B571
:100B7000A89B05C0EF3F19F00196A11DB11DFFBF55
:100B8000BA2FA92F982F88278E0F911DA11DB11D57
:100B9000E2E0880F991FAA1FBB1FEA95D1F7861BB9
:100BA000970B885E9340C8F221503040404050403F
:100BB00068517C4F211531054105510571F60895A5
:100BC000789484B5826084BD84B5816084BD85B528
:100BD000826085BD85B5816085BDEEE6F0E08081EF
:100BE00081608083E1E8F0E0108280818260808310
:100BF000808181608083E0E8F0E080818160808393
:100C0000E1EBF0E0808184608083E0EBF0E08081C4
:100C100081608083EAE7F0E0808184608083808166
:100C2000826080838081816080838081806880830E
:100C30001092C1000895CF93DF93482F50E0CA016E
:100C40008D539F4FFC01349141555F4FFA018491C0
:100C5000882369F190E0880F991FFC01EF56FF4F40
:100C6000A591B491FC01E556FF4FC591D49166233F
:100C700051F42FB7F8948C91932F909589238C93EE
:100C8000888189230BC0623061F42FB7F8948C916E
:100C9000932F909589238C938881832B88832FBFF2
:100CA00006C09FB7F8948C91832B8C939FBFDF91E4
:100CB000CF910895482F50E0CA0189529F4FFC01FF
:100CC0002491CA018D539F4FFC01949141555F4F70
:100CD000FA013491332309F440C0222351F1233027
:100CE00071F0243028F42130A1F0223011F514C025
:100CF0002630B1F02730C1F02430D9F404C08091FF
:100D000080008F7703C0809180008F7D809380006A
:100D100010C084B58F7702C084B58F7D84BD09C0B3
:100D20008091B0008F7703C08091B0008F7D809359
:100D3000B000E32FF0E0EE0FFF1FE556FF4FA59147
:100D4000B4912FB7F894662321F48C919095892360
:100D500002C08C91892B8C932FBF0895682F70E06F
:100D6000CB0189529F4FFC012491CB018D539F4FA2
:100D7000FC01449161557F4FFB019491992319F433
:100D800020E030E03CC0222351F1233071F02430C8
:100D900028F42130A1F0223011F514C02630B1F032
:100DA0002730C1F02430D9F404C0809180008F77BF
:100DB00003C0809180008F7D8093800010C084B537
:100DC0008F7702C084B58F7D84BD09C08091B0004B
:100DD0008F7703C08091B0008F7D8093B000892F02
:100DE00090E0880F991F8B559F4FFC01A591B491FE
:100DF0008C9120E030E0842311F021E030E0C90143
:100E0000089508951F920F920FB60F9211242F93F9
:100E10003F934F938F939F93EF93FF938091C000E5
:100E200082FD1DC04091C60020917F02309180025A
:100E30002F5F3F4F2F73307080918102909182021B
:100E40002817390771F0E0917F02F0918002E15C90
:100E5000FD4F40833093800220937F0202C0809137
:100E6000C600FF91EF919F918F914F913F912F91EC
:100E70000F900FBE0F901F901895E091D302F09144
:100E8000D402E05CFF4F8191919120813181805C9F
:100E90009F4F821B930B60E470E00E947F0A892BB6
:100EA00011F00E94010708951F920F920FB60F9242
:100EB00011242F933F938F939F93EF93FF93209150
:100EC000C3023091C4028091C5029091C6022817D6
:100ED000390731F48091C1008F7D8093C10014C027
:100EE000E091C502F091C602ED57FD4F208180913F
:100EF000C5029091C60201968F7390709093C602BE
:100F00008093C5022093C600FF91EF919F918F912E
:100F10003F912F910F900FBE0F901F901895AF9299
:100F2000BF92DF92EF92FF920F931F93CF93DF93C5
:100F3000EC017A018B01DD24403081EE580780E01E
:100F4000680780E0780711F0DD24D39491E0A92EA2
:100F5000B12CEC89FD89DD2069F0C50108A002C033
:100F6000880F991F0A94E2F7808360E079E08DE3AF
:100F700090E005C0108260E874E88EE190E0A8017E
:100F800097010E94920A21503040404050405695AF
:100F900047953795279580E12030380720F0DD20F0
:100FA00011F0DD24D6CFE889F9893083EA89FB89FD
:100FB000208319A2EE89FF89408121E030E0C90138
:100FC0000C8C02C0880F991F0A94E2F7482B4083CB
:100FD000EE89FF894081C9010D8C02C0880F991FDD
:100FE0000A94E2F7482B4083EE89FF894081C901CA
:100FF0000E8C02C0880F991F0A94E2F7482B408399
:10100000EE89FF8980810F8C02C0220F331F0A9462
:10101000E2F7209528232083DF91CF911F910F9134
:10102000FF90EF90DF90BF90AF900895DC011C9689
:10103000ED91FC911D97E05CFF4F81919191208192
:101040003181805C9F4F821B930B60E470E00E94B3
:101050007F0A0895DC011C96ED91FC911D97E05CE0
:10106000FF4F20813181E054F040DF01AE5BBF4F84
:101070008D919C9111972817390719F42FEF3FEFA5
:1010800007C08D919C91E80FF91F8081282F30E0D7
:10109000C9010895DC011C96ED91FC911D97E05C5F
:1010A000FF4F20813181E054F040DF01AE5BBF4F44
:1010B0008D919C9111972817390719F42FEF3FEF65
:1010C00010C08D919C911197E80FF91F20818D918F
:1010D0009C91119701968F73907011969C938E93AB
:1010E00030E0C9010895DC0191968C919197882395
:1010F00039F05496ED91FC915597808186FFF9CF98
:1011000091961C920895CF93DF93EC01EE85FF85B5
:10111000E05CFF4F20813181E054F0402F5F3F4F72
:101120002F733070DF01AE5BBF4F8D919C91119793
:1011300028173907D1F3E05CFF4F80819181E0549B
:10114000F040E80FF91F6083EE85FF85E05CFF4FFC
:1011500031832083EE89FF89208181E090E00F8C2C
:1011600002C0880F991F0A94E2F7282B208381E0A0
:1011700089A3EC89FD8980818064808381E090E08F
:10118000DF91CF9108951092CA021092C90288EEA1
:1011900093E0A0E0B0E08093CB029093CC02A093C8
:1011A000CD02B093CE028EE591E09093C802809379
:1011B000C7028FE392E09093D4028093D30283E836
:1011C00092E09093D6028093D50285EC90E09093C4
:1011D000D8028093D70284EC90E09093DA02809357
:1011E000D90280EC90E09093DC028093DB0281ECEA
:1011F00090E09093DE028093DD0282EC90E0909389
:10120000E0028093DF0286EC90E09093E20280930C
:10121000E10284E08093E30283E08093E40287E0CC
:101220008093E50285E08093E60281E08093E70207
:101230000895CF93DF930E94E0050E94CC01CDE397
:10124000D7E00E9496012097E1F30E943D07F9CF75
:10125000CF92DF92EF92FF920F931F93CF93DF9382
:101260007C016B018A01C0E0D0E00FC0D6016D9116
:101270006D01D701ED91FC910190F081E02DC70146
:101280000995C80FD91F015010400115110571F7BC
:10129000CE01DF91CF911F910F91FF90EF90DF90E2
:1012A000CF900895EF92FF920F931F93CF93DF9308
:1012B0007C018B01C0E0D0E0F8010F5F1F4F64910B
:1012C000662359F0D701ED91FC910190F081E02D5A
:1012D000C7010995C80FD91FEFCFCE01DF91CF917C
:1012E0001F910F91FF90EF900895EF92FF920F934F
:1012F0001F938C01DC01ED91FC910190F081E02DB8
:101300006DE009957C01D801ED91FC910190F0818F
:10131000E02DC8016AE009959C012E0D3F1DC90111
:101320001F910F91FF90EF900895EF92FF920F930E
:101330001F937C010E9452098C01C7010E9475090C
:101340009C01200F311FC9011F910F91FF90EF9059
:101350000895CF93DF93EC016115710519F420E036
:1013600030E00FC0DB010D900020E9F71197A61BBC
:10137000B70BE881F9810280F381E02DAD01099579
:101380009C01C901DF91CF9108954F925F927F92A6
:101390008F929F92AF92BF92CF92DF92EF92FF9285
:1013A0000F931F93DF93CF93CDB7DEB7A1970FB6FF
:1013B000F894DEBF0FBECDBF2C01742ECB012230BE
:1013C00008F42AE019A231E2C32ED12CCC0EDD1E86
:1013D000822E9924AA24BB24672D752FA501940180
:1013E0000E94920A79018A01C801B701A5019401FE
:1013F0000E94600A472D461B0894C108D1084A3054
:1014000014F4405D01C0495CF6014083E114F1042D
:101410000105110521F07E2C5F2DC801DDCFC20131
:10142000B6010E94A909A1960FB6F894DEBF0FBEBF
:10143000CDBFCF91DF911F910F91FF90EF90DF9083
:10144000CF90BF90AF909F908F907F905F904F9084
:101450000895DC012115310541F4ED91FC910190D5
:10146000F081E02D642F099508950E94C509089523
:10147000EF92FF920F931F939A01E62EFF2400E054
:1014800010E0B801A7010E94290A1F910F91FF9057
:10149000EF9008950E94A9090895EF92FF920F938B
:1014A0001F937C010E94A9098C01C7010E94750944
:1014B000080F191FC8011F910F91FF90EF90089519
:1014C000629FD001739FF001829FE00DF11D649F28
:1014D000E00DF11D929FF00D839FF00D749FF00DB4
:1014E000659FF00D9927729FB00DE11DF91F639F55
:1014F000B00DE11DF91FBD01CF011124089597FB27
:10150000092E07260AD077FD04D02ED006D0002061
:101510001AF4709561957F4F0895F6F7909581952F
:101520009F4F0895A1E21A2EAA1BBB1BFD010DC0FF
:10153000AA1FBB1FEE1FFF1FA217B307E407F50783
:1015400020F0A21BB30BE40BF50B661F771F881F5F
:10155000991F1A9469F760957095809590959B01F5
:10156000AC01BD01CF010895AA1BBB1B51E107C00F
:10157000AA1FBB1FA617B70710F0A61BB70B881F23
:10158000991F5A95A9F780959095BC01CD010895B2
:10159000EE0FFF1F0590F491E02D099410E0C2EFCB
:1015A000D0E004C0FE010E94CA0A2296C43FD107BF
:0615B000C9F7F894FFCF1B
:1015B600496E697469616C697A696E6720546F75E2
:1015C60063682053656E736F72000900746F7563EC
:1015D60068656400200054617070656400466C693B
:1015E600636B6564204C65667400466C69636B6565
:1015F60064205269676874003200000000006A02C5
:101606003902F201FB0110022102000000008308EA
:0A161600280916084A082A0873087C
:00000001FF
