:100000000C9465000C948D000C948D000C94FE04EF
:100010000C9428050C9452050C948D000C948D00C2
:100020000C948D000C948D000C948D000C948D001C
:100030000C948D000C948D000C948D000C948D000C
:100040000C94A50A0C948D000C94680C0C94BA0CBA
:100050000C948D000C948D000C948D000C948D00EC
:100060000C94F6080C948D0000000000240027007A
:100070002A0000000000250028002B0000000000DE
:1000800023002600290004040404040404040202DA
:100090000202020203030303030301020408102007
:1000A0004080010204081020010204081020000012
:1000B0000007000201000003040600000000000029
:1000C0000000AE009207290EA70011241FBECFEF3B
:1000D000D8E0DEBFCDBF12E0A0E0B1E0E0E5F0E2A5
:1000E00002C005900D92A63BB107D9F714E0A6EB2C
:1000F000B2E001C01D92A33AB107E1F710E0C8ECED
:10010000D0E004C02297FE010E941710C23CD10724
:10011000C9F70E947F0E0C941B100C9400008130D4
:10012000910559F46F5F7F4F89F486EB92E06AE0A6
:100130004BE020E00E942A070895892B39F46F5F75
:100140007F4F21F486EB92E00E94B105089580E094
:1001500090E06FEF7FEF0E948F00089581E090E0C4
:100160006FEF7FEF0E948F000895682F86E793E07E
:100170000E94DA07089586E793E060E00E940A088B
:1001800008950F931F93CF93DF93EB01042F0E94E9
:10019000B5000E94BB00112707FD109586E793E08C
:1001A00064E470E0A8010E942E0800E009C086E720
:1001B00093E00E946B07FE01E00FF11D80830F5F4B
:1001C00086E793E00E946207892B89F7DF91CF9140
:1001D0001F910F91089586E793E00E941D080895EE
:1001E000FF920F931F93CF93DF93282F162F072F84
:1001F000F42E86E793E0622F0E94DA07212F302F3A
:10020000C901EC0110E006C086E793E069910E9405
:10021000DA071F5F1F15C0F30E94EB0061E070E07A
:1002200080E090E00E94ED0ADF91CF911F910F9145
:10023000FF90089501C0000084E00E94140C019713
:10024000D1F385E060E00E94C00B86E793E064E4B0
:1002500070E00E94580708950E941A0181E062ED43
:1002600072E042E00E94C1008091D3028F3F11F101
:10027000282F30E01092EA0285FF03C081E08093CE
:10028000EA02C90146E0959587954A95E1F71092F3
:10029000E80280FF03C081E08093E802C901880F73
:1002A000892F881F990B1092E90280FF03C081E01B
:1002B0008093E90208950E941A0182E062ED72E0E3
:1002C00043E00E94C1008091D20290E008952F92F5
:1002D0003F924F925F926F927F928F929F92AF92D6
:1002E000BF92CF92DF92EF92FF920F931F93DF9313
:1002F000CF93CDB7DEB78DB69EB681E894E060E0CF
:1003000071E00E949A0F80E090E0B4E1AB2EA2E38E
:100310006A2EF0E17F2EE9ED5E2EBB24BA947FE2D7
:10032000472E68E2362E5DE1252E8430910509F4D2
:10033000B7C0853091058CF48130910571F1823020
:1003400091051CF4009701F1F0CF8230910509F47A
:1003500062C08330910549F780C08730910509F468
:100360002DC18830910544F48530910509F4CDC044
:1003700086309105D1F6FAC08830910509F445C15F
:100380008930910591F6B9C181E894E06AE171E0A4
:100390000E949A0F81E090E0C8CFFDB6EEB685E0EE
:1003A00061E00E94C00B61E070E080E090E00E949C
:1003B000ED0A85E060E00E94C00B81E894E060E314
:1003C00071E00E949A0F00D000D00F920DB71EB7B7
:1003D0000F5F1F4FEDB7FEB7118289E9F8018183E6
:1003E0001282B382B4820E941A0189E0B80145E00A
:1003F0000E94F00061E070E080E090E00E94ED0A71
:100400002F2D3E2DC9010FB6F8949EBF0FBE8DBF94
:1004100082E090E08ACFFDB6EEB681E894E06BE42E
:1004200071E00E949A0F0F920DB71EB70F5F1F4F1A
:10043000EDB7FEB711820E941A0181E0B80141E0D8
:100440000E94F0002F2D3E2DC9010FB6F8949EBFDB
:100450000FBE8DBF83E090E068CFFDB6EEB681E8B9
:1004600094E061E671E00E949A0F0F920DB71EB7FB
:100470000F5F1F4F8FE0EDB7FEB781830E941A0117
:100480008DE0B80141E00E94F0002F2D3E2DC90102
:100490000FB6F8949EBF0FBE8DBF84E090E045CFAD
:1004A000FDB6EEB681E894E062E771E00E949A0F33
:1004B0008DB79EB708970FB6F8949EBF0FBE8DBF3D
:1004C0000DB71EB70F5F1F4F88E0EDB7FEB78183F2
:1004D000F801718280E28283838383E084831582C2
:1004E000A68284E087830E941A018AE0B80148E06E
:1004F0000E94F0002F2D3E2DC9010FB6F8949EBF2B
:100500000FBE8DBF85E090E010CFFDB6EEB681E85E
:1005100094E069E871E00E949A0F00D000D00F9239
:100520000DB71EB70F5F1F4FEDB7FEB74182F80141
:100530003182228285E2838384E684830E941A01C9
:1005400087E0B80145E00E94F00061E070E080E0E3
:1005500090E00E94ED0A2F2D3E2DC9010FB6F894B0
:100560009EBF0FBE8DBF86E090E0DFCEFDB6EEB63B
:1005700081E894E06CE971E00E949A0F00D00F923C
:100580000DB71EB70F5F1F4FEDB7FEB7118280E4A6
:10059000F801818380E882830E941A018BE0B80110
:1005A00043E00E94F0002F2D3E2DC9010FB6F894B4
:1005B0009EBF0FBE8DBF87E090E0B7CEFDB6EEB612
:1005C00081E894E067EB71E00E949A0F00D00F92EF
:1005D0000DB71EB70F5F1F4F85E0EDB7FEB78183E4
:1005E000F801A18262820E941A018CE0B80143E006
:1005F0000E94F0002F2D3E2DC9010FB6F8949EBF2A
:100600000FBE8DBF88E090E090CEDDB6CEB681E81B
:1006100094E06EEC71E00E949A0F00D000D00F922F
:100620000DB71EB70F5F1F4F8DB79EB70C970FB654
:10063000F8949EBF0FBE8DBFEDB6FEB60894E11CC8
:10064000F11CF801708251821282B382B48281E877
:1006500094E060EF71E00E949A0F0E941A0189E015
:10066000B80145E00E94F00064E670E080E090E0B0
:100670000E94ED0A64E670E080E090E00E94ED0ADE
:1006800064E670E080E090E00E94ED0A870181E876
:1006900094E068E072E00E94970F0E941A0181E0E6
:1006A000B8014CE00E94C10081E894E0F70160814C
:1006B0004AE050E00E94790F63E070E080E090E053
:1006C0000E94ED0AF701818180FDE1CF61E070E0D9
:1006D00080E090E00E94ED0A8D2D9C2D9C010FB6CC
:1006E000F8943EBF0FBE2DBF81E894E066E172E052
:1006F0000E949A0F89E090E018CEDDB6CEB681E870
:1007000094E06DE272E00E949A0F00D00F92EDB675
:10071000FEB60894E11CF11C84E00E94140C0197C1
:10072000D9F30E941A0182E0B70143E00E94C100A0
:1007300081E894E06AE372E00E949A0F00E010E022
:10074000F701E00FF11F81E894E060814AE050E09A
:100750000E94670F81E894E068E472E00E94970FBE
:100760000F5F1F4F0330110559F78D2D9C2D9C01F4
:100770000FB6F8943EBF0FBE2DBF81E894E06BE446
:1007800072E00E949A0F0FB6F8949EBE0FBE8DBE07
:10079000CF91DF911F910F91FF90EF90DF90CF905D
:1007A000BF90AF909F908F907F906F905F904F9091
:1007B0003F902F9008950E941A0181E062ED72E04F
:1007C00042E00E94C1008091D30287FD06C081E80B
:1007D00094E06AE672E00E94970F8091D302803421
:1007E00030F481E894E06AE672E00E94970F80910D
:1007F000D302803230F481E894E06AE672E00E942D
:10080000970F8091D302803130F481E894E06AE65A
:1008100072E00E94970F8091D302883030F481E813
:1008200094E06AE672E00E94970F8091D3028430D0
:1008300030F481E894E06AE672E00E94970F8091BC
:10084000D302823030F481E894E06AE672E00E94DC
:10085000970F81E894E06091D30242E050E00E945B
:10086000670F81E894E06CE672E00E949A0F0895A9
:100870000E945B018093EB0262E070E080E090E018
:100880000E94ED0A0E94DB0362E070E080E090E0ED
:100890000E94ED0A0E942C018091E7029091E602ED
:1008A000882351F0992391F481E08093E60281E856
:1008B00094E06DE672E008C0992341F01092E602E0
:1008C00081E894E069E772E00E949A0F68E070E0C6
:1008D00080E090E00E94ED0A089581E894E040E015
:1008E00052EC61E070E00E94F50C81E160E00E9452
:1008F000810B84E060E00E94810B85E061E00E9452
:10090000810B86E793E00E94320865E070E080E0AA
:1009100090E00E94ED0A0E94670165E070E080E0CF
:1009200090E00E94ED0A08950F931F93CF93DF93F9
:10093000FC01738D76957170A685B78595857723B3
:1009400029F08C91892309F454C004C08C91892327
:1009500009F04FC08389948920E001972FEF8F3FE2
:100960009207D9F7C589D689A685B785158560E030
:1009700031E040E050E000E0CE01202F01972FEF62
:100980008F3F9207D9F78C91812311F0632B03C01D
:10099000832F80956823330F4F5F5F4F4830510599
:1009A00059F78789908D20E001972FEF8F3F9207AD
:1009B000D9F77111609580912E0320912F0390E05B
:1009C00001968F73907030E08217930779F0E09171
:1009D0002E03F0E0E251FD4F608380912E0390E002
:1009E00001968F73907080932E0303C0838D816076
:1009F000838FDF91CF911F910F9108951F920F92D6
:100A00000FB60F9211242F933F934F935F936F93E1
:100A10007F938F939F93AF93BF93EF93FF938091B7
:100A2000EC029091ED02009711F00E949404FF9166
:100A3000EF91BF91AF919F918F917F916F915F9156
:100A40004F913F912F910F900FBE0F901F901895CF
:100A50001F920F920FB60F9211242F933F934F9333
:100A60005F936F937F938F939F93AF93BF93EF9316
:100A7000FF938091EC029091ED02009711F00E949B
:100A80009404FF91EF91BF91AF919F918F917F91CE
:100A90006F915F914F913F912F910F900FBE0F90EB
:100AA0001F9018951F920F920FB60F9211242F933B
:100AB0003F934F935F936F937F938F939F93AF93E6
:100AC000BF93EF93FF938091EC029091ED0200971A
:100AD00011F00E949404FF91EF91BF91AF919F910B
:100AE0008F917F916F915F914F913F912F910F90D7
:100AF0000FBE0F901F901895FC014485463180F57C
:100B0000483028F4EDE6F0E0ADE6B0E00BC04E3042
:100B100028F4EBE6F0E0ABE6B0E004C0ECE6F0E091
:100B2000ACE6B0E05081483040F481E090E002C093
:100B3000880F991F4A95E2F710C0242F30E04E30FD
:100B400018F42850304002C02E50304081E090E030
:100B500002C0880F991F2A95E2F7809585238C9310
:100B60000895FC0189E892E091838083CF010E947F
:100B70007C0508952091EC023091ED022817390789
:100B800031F490912F0380912E03981719F42FEFD1
:100B90003FEF0FC0E0912F03F0E0E251FD4F2081C5
:100BA00080912F0390E001968F73907080932F03B4
:100BB00030E0C90108952091EC023091ED02281730
:100BC000390719F020E030E00EC080912E0320910B
:100BD0002F0390E0805C9F4F821B910960E470E0DE
:100BE0000E94CC0F9C01C90108950F931F93DC0153
:100BF00059968D919C915A97892B49F481E090E008
:100C000013969C938E93129720E030E097C00FB715
:100C1000F8945B968C915B975196ED91FC9152976D
:100C200050962C91509781FF8DC08081822B8083BC
:100C300059968D919C915A97059620E001972FEF38
:100C40008F3F9207D9F75B968C915B9781FF35C0F8
:100C500031E040E050E070E010E0832F90E0862328
:100C600097235196ED91FC91529750962C91509765
:100C7000892B29F0808120952823208303C080813F
:100C8000822B808359968D919C915A97212F0197A1
:100C90002FEF8F3F9207D9F7330F4F5F5F4F4830E9
:100CA0005105D9F65196ED91FC915297908150964D
:100CB0008C9150978095892333C031E040E050E01B
:100CC00070E010E0832F90E0862397235196ED91FA
:100CD000FC91529750962C915097892B21F080814E
:100CE000822B808304C080812095282320835996FD
:100CF0008D919C915A97212F01972FEF8F3F92074B
:100D0000D9F7330F4F5F5F4F48305105D9F65196F1
:100D1000ED91FC915297808150969C915097892B30
:100D200080830FBF59968D919C915A9720E001972F
:100D30002FEF8F3F9207D9F721E030E0C9011F91D3
:100D40000F910895808120952823208371CF2091D1
:100D5000EC023091ED022817390749F49FB7F89457
:100D600010922E0380912E0380932F039FBF08952E
:100D70002091EC023091ED022817390731F490915F
:100D80002F0380912E03981719F42FEF3FEF0AC01D
:100D9000E0912F03F0E0E251FD4F8081282F3327AF
:100DA00027FD3095C90108951F93CF93DF93EC0180
:100DB000162F862F60E00E94810B8B8D81FD04C071
:100DC000812F61E00E94C00B1C87212F30E0C901F8
:100DD00086569F4FFC0184918D872A573F4FF9011A
:100DE0006491E62FF0E0EE0FFF1FE458FF4F85916E
:100DF00094919F878E87DF91CF911F910895FF92E5
:100E00000F931F938C01F62E862F61E00E94810BB9
:100E10008F2D61E00E94C00B8F2D90E0FC01E65603
:100E2000FF4FE491D8015096EC9350978A579F4F0B
:100E3000FC016491E62FF0E0EE0FFF1FEE58FF4F2C
:100E40008591949152969C938E9351971F910F91F7
:100E5000FF900895FF920F931F938C01F62EFC01D3
:100E60001382128288EE93E0A0E0B0E08483958341
:100E7000A683B78389E892E091838083148A138ADA
:100E8000168A158A108E178A128E118E838D217004
:100E9000220F8C7F822B838FC801642F0E94FF0654
:100EA000C8016F2D0E94D4061F910F91FF900895E5
:100EB00081E0809375036093520310927303109244
:100EC000740308952091510330E080915003281B52
:100ED0003109C90108954091500380915103481789
:100EE00018F02FEF3FEF0AC0E42FF0E0E05DFC4F79
:100EF0008081282F30E04F5F40935003C90108954F
:100F0000E091500380915103E81718F0EFEFFFEFE5
:100F100006C0F0E0E05DFC4F8081E82FF0E0CF01FB
:100F200008950895109279031092780388EE93E063
:100F3000A0E0B0E080937A0390937B03A0937C03BE
:100F4000B0937D0389E992E09093770380937603D1
:100F50000895CF92DF92EF92FF920F931F93CF935A
:100F6000DF937C016B018A01809175038823A1F0D6
:100F7000C0E0D0E00DC0D701ED91FC91D601AC0FDF
:100F8000BD1F0190F081E02DC7016C91099521965C
:100F9000C017D10780F304C0CB01642F0E94DB0887
:100FA000C801DF91CF911F910F91FF90EF90DF90DB
:100FB000CF900895DF93CF930F92CDB7DEB7FC01AA
:100FC0006983809175038823C9F08091740380320E
:100FD00038F081E090E09383828320E030E015C018
:100FE00080917303E82FF0E0ED5AFC4F99819083D4
:100FF0008F5F809373038093740305C0CE010196C5
:1010000061E00E94DB0821E030E0C9010F90CF9140
:10101000DF9108950F93062F8091520363E573E0EB
:101020004091740321E00E9486081092730310928D
:101030007403109275030F91089561E00E940A08ED
:101040000895413208F040E2862F60E373E00E9489
:101050003D081092500380935103089521E00E94AF
:1010600021080895109250031092510310927303B7
:10107000109274030E94870A0895382F413210F0AD
:1010800040E042C0809182038823E1F791E0909391
:101090008203209384038FEF8093EF031092AA03BF
:1010A00041504093AB034F5F909383038091830340
:1010B000330F832B8093830380918503813041F428
:1010C00010928503809183038093BB0085EC01C05F
:1010D00085EE8093BC00809182038130E1F38091A2
:1010E000AA03841710F44091AA0320E030E00AC05C
:1010F000FB01E20FF31FD901A657BC4F8C918083EF
:101100002F5F3F4F2417A0F3842F08950F931F9351
:10111000582F122F413210F081E04AC08091820393
:101120008823E1F782E080938203009384038FEFAA
:101130008093EF031092AA034093AB03AAE8B3E0B5
:10114000FB0102C081918D938E2F861B8417D0F3F3
:101150001092830380918303550F852B8093830323
:1011600080918503813041F410928503809183033F
:101170008093BB0085EC01C085EE8093BC001123F9
:1011800021F0809182038230E1F38091EF038F3F61
:1011900011F480E00DC08091EF03803211F482E001
:1011A00007C08091EF03803311F084E001C083E039
:1011B0001F910F910895482F613210F081E008953A
:1011C00080918203843011F082E008956093CD0312
:1011D000ACEAB3E0842F9C01F90102C081918D93A8
:1011E0008E2F841B8617D0F380E008951F920F92F4
:1011F0000FB60F9211242F933F934F935F936F93EA
:101200007F938F939F93AF93BF93EF93FF938091BF
:10121000B90090E0887F90708036910509F4F2C0A3
:1012200081369105CCF58832910509F47BC089326D
:101230009105B4F48031910509F46FC081319105B5
:101240003CF4009709F447C1089709F04FC165C005
:101250008831910509F466C0809709F047C182C0C2
:101260008034910509F4A4C08134910544F480339D
:10127000910509F482C0C89709F038C189C080354A
:10128000910509F489C08835910509F496C0883420
:10129000910509F02BC1AEC08839910509F413C13D
:1012A00089399105ECF48837910509F4ABC0893789
:1012B00091054CF48836910509F4A4C08037910556
:1012C00009F014C19FC08838910509F4FCC0803929
:1012D000910509F49DC08038910509F007C198C0B7
:1012E000803B910509F4C6C0813B91054CF4803ADE
:1012F000910509F49FC0883A910509F0F7C0BAC07A
:10130000803C910509F4E3C0883C910509F4DFC0F5
:10131000883B910509F0EAC0C2C0809183038093A5
:10132000BB00CFC09091AA038091AB03981768F4DB
:101330009091AA03E92FF0E0E657FC4F808180935B
:10134000BB009F5F9093AA03BCC080918403882355
:1013500009F44BC085ED8093BC008091BC0084FDF6
:10136000FCCFC2C080E28093EF0385ED8093BC0088
:101370008091BC0084FDFCCFB7C080E38093EF0375
:1013800085ED8093BC008091BC0084FDFCCFACC097
:1013900088E38093EF039BC08091AA039091BB00E8
:1013A000E82FF0E0E657FC4F90838F5F8093AA030D
:1013B0009091AA038091AB0382C08091AA0390917F
:1013C000BB00E82FF0E0E657FC4F90838F5F8093DF
:1013D000AA0380918403882341F085ED8093BC00AB
:1013E0008091BC0084FDFCCF7FC081E080938503A9
:1013F00084EA6EC085ED8093BC008091BC0084FDC2
:10140000FCCF72C083E0809382031092EE0359C038
:101410008091EE03803208F056C08091EE039091E7
:10142000BB00E82FF0E0E253FC4F90838F5F809386
:10143000EE0347C08091EE03803230F4E091EE037A
:10144000F0E0E253FC4F108285ED8093BC00809168
:10145000BC0084FDFCCF109282036091EE03E0910A
:101460008803F09189038EEC93E070E00995109267
:10147000EE032DC084E0809382031092CC0310927F
:10148000CD03E0918603F091870309958091CD0308
:10149000882329F481E08093CD031092AC039091CE
:1014A000CC03E92FF0E0E455FC4F80818093BB0032
:1014B0009F5F9093CC039091CC038091CD039817BC
:1014C00010F485EC01C085E88093BC000FC085EC6A
:1014D0008093BC0009C01092EF0385ED8093BC009F
:1014E0008091BC0084FDFCCF10928203FF91EF91AC
:1014F000BF91AF919F918F917F916F915F914F912C
:101500003F912F910F900FBE0F901F901895109242
:10151000820381E0809384031092850382E161E07D
:101520000E94C00B83E161E00E94C00BE9EBF0E098
:1015300080818E7F808380818D7F808388E480930B
:10154000B80085E48093BC0008951F920F920FB6F7
:101550000F9211242F933F938F939F93AF93BF9339
:101560008091F4039091F503A091F603B091F703F5
:101570003091F8030196A11DB11D232F2D5F2D374A
:1015800020F02D570196A11DB11D2093F8038093E3
:10159000F4039093F503A093F603B093F7038091BF
:1015A000F0039091F103A091F203B091F30301963F
:1015B000A11DB11D8093F0039093F103A093F2035A
:1015C000B093F303BF91AF919F918F913F912F9172
:1015D0000F900FBE0F901F9018959B01AC017FB725
:1015E000F8948091F0039091F103A091F203B091EF
:1015F000F30366B5A89B05C06F3F19F00196A11DC6
:10160000B11D7FBFBA2FA92F982F8827860F911D54
:10161000A11DB11D62E0880F991FAA1FBB1F6A950B
:10162000D1F7BC012DC0FFB7F8948091F0039091E1
:10163000F103A091F203B091F303E6B5A89B05C0B6
:10164000EF3F19F00196A11DB11DFFBFBA2FA92FC1
:10165000982F88278E0F911DA11DB11DE2E0880FE4
:10166000991FAA1FBB1FEA95D1F7861B970B885EAF
:101670009340C8F2215030404040504068517C4F68
:10168000211531054105510571F60895789484B509
:10169000826084BD84B5816084BD85B5826085BD6E
:1016A00085B5816085BDEEE6F0E080818160808354
:1016B000E1E8F0E010828081826080838081816037
:1016C0008083E0E8F0E0808181608083E1EBF0E0FE
:1016D000808184608083E0EBF0E0808181608083A2
:1016E000EAE7F0E08081846080838081826080838B
:1016F0008081816080838081806880831092C100B6
:101700000895CF93DF93482F50E0CA0186569F4F2C
:10171000FC0134914A575F4FFA018491882369F1A3
:1017200090E0880F991FFC01E859FF4FA591B491F3
:10173000FC01EE58FF4FC591D491662351F42FB7A9
:10174000F8948C91932F909589238C938881892389
:101750000BC0623061F42FB7F8948C91932F909561
:1017600089238C938881832B88832FBF06C09FB7E2
:10177000F8948C91832B8C939FBFDF91CF91089528
:10178000482F50E0CA0182559F4FFC012491CA01A5
:1017900086569F4FFC0194914A575F4FFA0134914E
:1017A000332309F440C0222351F1233071F0243057
:1017B00028F42130A1F0223011F514C02630B1F008
:1017C0002730C1F02430D9F404C0809180008F7795
:1017D00003C0809180008F7D8093800010C084B50D
:1017E0008F7702C084B58F7D84BD09C08091B00021
:1017F0008F7703C08091B0008F7D8093B000E32F7E
:10180000F0E0EE0FFF1FEE58FF4FA591B4912FB7F8
:10181000F894662321F48C919095892302C08C91D1
:10182000892B8C932FBF0895682F70E0CB018255D0
:101830009F4FFC012491CB0186569F4FFC014491A0
:101840006A577F4FFB019491992319F420E030E00F
:101850003CC0222351F1233071F0243028F4213090
:10186000A1F0223011F514C02630B1F02730C1F0BC
:101870002430D9F404C0809180008F7703C0809118
:1018800080008F7D8093800010C084B58F7702C068
:1018900084B58F7D84BD09C08091B0008F7703C06F
:1018A0008091B0008F7D8093B000892F90E0880FE9
:1018B000991F84589F4FFC01A591B4918C9120E011
:1018C00030E0842311F021E030E0C901089508954B
:1018D0001F920F920FB60F9211242F933F934F93A5
:1018E0008F939F93EF93FF938091C00082FD1DC063
:1018F0004091C6002091390430913A042F5F3F4F48
:101900002F73307080913B0490913C042817390765
:1019100071F0E0913904F0913A04E750FC4F4083B4
:1019200030933A042093390402C08091C600FF919D
:10193000EF919F918F914F913F912F910F900FBEFB
:101940000F901F901895E0918D04F0918E04E05C4B
:10195000FF4F8191919120813181805C9F4F821B4B
:10196000930B60E470E00E94CC0F892B11F00E9471
:10197000670C08951F920F920FB60F9211242F93A8
:101980003F938F939F93EF93FF9320917D0430912A
:101990007E0480917F04909180042817390731F4E8
:1019A0008091C1008F7D8093C10014C0E0917F04BD
:1019B000F0918004E35CFB4F208180917F04909143
:1019C000800401968F7390709093800480937F04BD
:1019D0002093C600FF91EF919F918F913F912F919E
:1019E0000F900FBE0F901F901895AF92BF92DF928D
:1019F000EF92FF920F931F93CF93DF93EC017A0145
:101A00008B01DD24403081EE580780E0680780E0DC
:101A1000780711F0DD24D39491E0A92EB12CEC8944
:101A2000FD89DD2069F0C50108A002C0880F991F5B
:101A30000A94E2F7808360E079E08DE390E005C0EE
:101A4000108260E874E88EE190E0A80197010E949E
:101A5000DF0F215030404040504056954795379514
:101A6000279580E12030380720F0DD2011F0DD24BB
:101A7000D6CFE889F9893083EA89FB89208319A2C6
:101A8000EE89FF89408121E030E0C9010C8C02C061
:101A9000880F991F0A94E2F7482B4083EE89FF894B
:101AA0004081C9010D8C02C0880F991F0A94E2F78A
:101AB000482B4083EE89FF894081C9010E8C02C00A
:101AC000880F991F0A94E2F7482B4083EE89FF891B
:101AD00080810F8C02C0220F331F0A94E2F72095F9
:101AE00028232083DF91CF911F910F91FF90EF90DA
:101AF000DF90BF90AF900895DC011C96ED91FC91B2
:101B00001D97E05CFF4F8191919120813181805C34
:101B10009F4F821B930B60E470E00E94CC0F0895EE
:101B2000DC011C96ED91FC911D97E05CFF4F20813C
:101B30003181E054F040DF01AE5BBF4F8D919C914D
:101B400011972817390719F42FEF3FEF07C08D9130
:101B50009C91E80FF91F8081282F30E0C90108957A
:101B6000DC011C96ED91FC911D97E05CFF4F2081FC
:101B70003181E054F040DF01AE5BBF4F8D919C910D
:101B800011972817390719F42FEF3FEF10C08D91E7
:101B90009C911197E80FF91F20818D919C911197CD
:101BA00001968F73907011969C938E9330E0C901CB
:101BB0000895DC0191968C919197882339F0549681
:101BC000ED91FC915597808186FFF9CF91961C92FB
:101BD0000895CF93DF93EC01EE85FF85E05CFF4F26
:101BE00020813181E054F0402F5F3F4F2F733070E0
:101BF000DF01AE5BBF4F8D919C911197281739077C
:101C0000D1F3E05CFF4F80819181E054F040E80F18
:101C1000F91F6083EE85FF85E05CFF4F31832083F1
:101C2000EE89FF89208181E090E00F8C02C0880F4F
:101C3000991F0A94E2F7282B208381E089A3EC897D
:101C4000FD8980818064808381E090E0DF91CF9185
:101C50000895109284041092830488EE93E0A0E02B
:101C6000B0E08093850490938604A0938704B0939A
:101C7000880489EA92E0909382048093810489EF3A
:101C800093E090938E0480938D048DE394E0909381
:101C9000900480938F0485EC90E09093920480935D
:101CA000910484EC90E0909394048093930480ECEE
:101CB00090E0909396048093950481EC90E090934B
:101CC00098048093970482EC90E090939A04809318
:101CD000990486EC90E090939C0480939B0484E0AC
:101CE00080939D0483E080939E0487E080939F040B
:101CF00085E08093A00481E08093A1040895CF93B0
:101D0000DF930E94460B0E946D04C3EADCE00E9450
:101D100038042097E1F30E94A30CF9CFCF92DF9211
:101D2000EF92FF920F931F93CF93DF937C016B0190
:101D30008A01C0E0D0E00FC0D6016D916D01D701DE
:101D4000ED91FC910190F081E02DC7010995C80F3C
:101D5000D91F015010400115110571F7CE01DF9117
:101D6000CF911F910F91FF90EF90DF90CF9008954A
:101D7000EF92FF920F931F938C01DC01ED91FC9188
:101D80000190F081E02D6DE009957C01D801ED9185
:101D9000FC910190F081E02DC8016AE009959C0159
:101DA0002E0D3F1DC9011F910F91FF90EF900895D7
:101DB000CF93DF93EC016115710519F420E030E059
:101DC0000FC0DB010D900020E9F71197A61BB70BA0
:101DD000E881F9810280F381E02DAD0109959C0134
:101DE000C901DF91CF9108954F925F927F928F92B8
:101DF0009F92AF92BF92CF92DF92EF92FF920F939A
:101E00001F93DF93CF93CDB7DEB7A1970FB6F894AA
:101E1000DEBF0FBECDBF2C01742ECB01223008F4E3
:101E20002AE019A231E2C32ED12CCC0EDD1E822E67
:101E30009924AA24BB24672D752FA50194010E9423
:101E4000DF0F79018A01C801B701A50194010E9441
:101E5000AD0F472D461B0894C108D1084A3014F431
:101E6000405D01C0495CF6014083E114F1040105C5
:101E7000110521F07E2C5F2DC801DDCFC201B60116
:101E80000E94D80EA1960FB6F894DEBF0FBECDBF4C
:101E9000CF91DF911F910F91FF90EF90DF90CF9046
:101EA000BF90AF909F908F907F905F904F900895DC
:101EB000DC012115310541F4ED91FC910190F08197
:101EC000E02D642F099508950E94F40E0895EF9275
:101ED000FF920F931F939A01E62EFF2400E010E07B
:101EE000B801A7010E94580F1F910F91FF90EF902A
:101EF0000895CF92DF92EF92FF920F931F936C01A0
:101F0000E62E9A01FF2400E010E0B801A7010E942C
:101F1000580F8C01C6010E94B80E080F191FC80186
:101F20001F910F91FF90EF90DF90CF9008950E9446
:101F3000D80E0895EF92FF920F931F937C010E9499
:101F4000D80E8C01C7010E94B80E080F191FC801D6
:101F50001F910F91FF90EF900895629FD001739FA2
:101F6000F001829FE00DF11D649FE00DF11D929F35
:101F7000F00D839FF00D749FF00D659FF00D992774
:101F8000729FB00DE11DF91F639FB00DE11DF91F98
:101F9000BD01CF011124089597FB092E07260AD011
:101FA00077FD04D02ED006D000201AF470956195EC
:101FB0007F4F0895F6F7909581959F4F0895A1E280
:101FC0001A2EAA1BBB1BFD010DC0AA1FBB1FEE1FB3
:101FD000FF1FA217B307E407F50720F0A21BB30BFE
:101FE000E40BF50B661F771F881F991F1A9469F77A
:101FF00060957095809590959B01AC01BD01CF01D6
:102000000895AA1BBB1B51E107C0AA1FBB1FA6173F
:10201000B70710F0A61BB70B881F991F5A95A9F791
:1020200080959095BC01CD010895EE0FFF1F05909E
:10203000F491E02D099410E0C8ECD0E004C0FE015A
:102040000E9417102296CA3CD107C9F7F894FFCF17
:10205000496E697469616C697A696E6720546F753D
:1020600063682053656E736F7200426567696E6EB8
:10207000696E672063616C6962726174696F6E007A
:1020800053657474696E67206175746F2074756E22
:10209000696E6720746F206F66660053657474699B
:1020A0006E67206D6F646520746F203420626974E0
:1020B0000053657474696E67206368616E6E656C49
:1020C0007300436F6E6669677572696E6720746826
:1020D000726573686F6C64730053657474696E67BE
:1020E000206D756C7469706C6965720053657474E9
:1020F000696E67206175746F2D74756E696E6720E7
:102100007461726765740053657474696E672067E3
:102110006573747572652074696D696E67005365C7
:102120007474696E672070726F78696D6974792054
:10213000616E64206175746F2074756E696E6700DE
:102140002D3E205472616E736D697474696E6720E0
:1021500073657474696E67002D3E20526573706FED
:102160006E73653A2000496E697420537563636528
:10217000737366756C6C7920446F6E65005265618F
:1021800064696E67206461746100576865656C20DE
:1021900056616C75653A20002C2000646F6E6520D6
:1021A000696E697469616C697A696E6720746F75AC
:1021B00063682073656E736F7200300000546F7532
:1021C000636820426567696E00546F7563682045D7
:1021D0006E6465640000000000F5058E0EDB05BA34
:1021E00005B806A70600000000DA07A90762076B1A
:1021F000078007910700000000E90D8E0E7C0DB0EE
:062200000D900DD90D0048
:00000001FF
