:100000000C9463000C948B000C948B000C948B006C
:100010000C948B000C948B000C948B000C948B0034
:100020000C948B000C948B000C948B000C948B0024
:100030000C948B000C948B000C948B000C948B0014
:100040000C9494010C948B000C948B000C948B00FA
:100050000C948B000C948B000C948B000C948B00F4
:100060000C948B000C948B000000000024002700EF
:100070002A0000000000250028002B0000000000DE
:1000800023002600290004040404040404040202DA
:100090000202020203030303030301020408102007
:1000A0004080010204081020010204081020000012
:1000B0000007000201000003040600000000000029
:1000C00000004B01440111241FBECFEFD8E0DEBF7A
:1000D000CDBF11E0A0E0B1E0EAE4F6E002C0059097
:1000E0000D92A030B107D9F711E0A0E0B1E001C056
:1000F0001D92AD30B107E1F710E0C4ECD0E004C0D0
:100100002297FE010E941403C23CD107C9F70E9446
:1001100003030C9418030C940000FC0142837183C8
:100120006083238308950895249A089580E047FF0B
:1001300016C02C9A00000000000000000000000023
:100140000000000000000000000000002C980000EB
:1001500000000000000000000000000012C02C9A07
:1001600000000000000000002C98000000000000CB
:10017000000000000000000000000000000000007F
:1001800000008F5F883011F0440FD1CF80E067FF0F
:1001900016C02C9A000000000000000000000000C3
:1001A0000000000000000000000000002C9800008B
:1001B00000000000000000000000000012C02C9AA7
:1001C00000000000000000002C980000000000006B
:1001D000000000000000000000000000000000001F
:1001E00000008F5F883011F0660FD1CF80E027FFCD
:1001F00016C02C9A00000000000000000000000063
:100200000000000000000000000000002C9800002A
:1002100000000000000000000000000012C02C9A46
:1002200000000000000000002C980000000000000A
:1002300000000000000000000000000000000000BE
:1002400000008F5F883011F0220FD1CF089585E232
:100250008A95F1F708958130910561F46F5F7F4FC2
:1002600091F480E091E060E470E046E023E00E94D9
:100270008D000895892B39F46F5F7F4F21F480E062
:1002800091E00E949300089580E090E06FEF7FEF8F
:100290000E942B01089581E090E06FEF7FEF0E94B4
:1002A0002B0108950F931F93CF93DF938DE061E0AF
:1002B0000E94AF0264E670E080E090E00E94DC0102
:1002C0008DE060E00E94AF0264E873E080E090E0BF
:1002D0000E94DC01F89400E010E010C080E091E0A2
:1002E00060E440E020E00E9496002196C830D105ED
:1002F000A9F70F5F1F4F0830110519F0C0E0D0E0DB
:10030000EDCF789480E091E00E942701DF91CF91BA
:100310001F910F9108958DE061E00E94700280E0CE
:1003200091E00E94940008951F920F920FB60F92D1
:1003300011242F933F938F939F93AF93BF938091FB
:10034000080190910901A0910A01B0910B0130912F
:100350000C010196A11DB11D232F2D5F2D3720F01B
:100360002D570196A11DB11D20930C01809308010A
:1003700090930901A0930A01B0930B0180910401AD
:1003800090910501A0910601B09107010196A11D70
:10039000B11D8093040190930501A0930601B093D1
:1003A0000701BF91AF919F918F913F912F910F9036
:1003B0000FBE0F901F9018959B01AC017FB7F8946A
:1003C0008091040190910501A0910601B09107016F
:1003D00066B5A89B05C06F3F19F00196A11DB11D20
:1003E0007FBFBA2FA92F982F8827860F911DA11D97
:1003F000B11D62E0880F991FAA1FBB1F6A95D1F734
:10040000BC012DC0FFB7F8948091040190910501C3
:10041000A0910601B0910701E6B5A89B05C0EF3F8A
:1004200019F00196A11DB11DFFBFBA2FA92F982F5A
:1004300088278E0F911DA11DB11DE2E0880F991F25
:10044000AA1FBB1FEA95D1F7861B970B885E9340C6
:10045000C8F2215030404040504068517C4F211537
:1004600031054105510571F60895789484B582608F
:1004700084BD84B5816084BD85B5826085BD85B548
:10048000816085BDEEE6F0E0808181608083E1E8F7
:10049000F0E010828081826080838081816080832F
:1004A000E0E8F0E0808181608083E1EBF0E0808132
:1004B00084608083E0EBF0E0808181608083EAE704
:1004C000F0E080818460808380818260808380818D
:1004D000816080838081806880831092C10008954C
:1004E000CF93DF93482F50E0CA0186569F4FFC01FF
:1004F00034914A575F4FFA018491882369F190E063
:10050000880F991FFC01E859FF4FA591B491FC0198
:10051000EE58FF4FC591D491662351F42FB7F8944C
:100520008C91932F909589238C93888189230BC07C
:10053000623061F42FB7F8948C91932F90958923B2
:100540008C938881832B88832FBF06C09FB7F89434
:100550008C91832B8C939FBFDF91CF910895482F6F
:1005600050E0CA0182559F4FFC012491CA01865672
:100570009F4FFC0194914A575F4FFA013491332306
:1005800009F440C0222351F1233071F0243028F4C3
:100590002130A1F0223011F514C02630B1F02730FF
:1005A000C1F02430D9F404C0809180008F7703C05B
:1005B000809180008F7D8093800010C084B58F77FC
:1005C00002C084B58F7D84BD09C08091B0008F7753
:1005D00003C08091B0008F7D8093B000E32FF0E0E6
:1005E000EE0FFF1FEE58FF4FA591B4912FB7F8946F
:1005F000662321F48C919095892302C08C91892BDC
:100600008C932FBF0895CF93DF930E9435020E94F1
:100610008B01C0E0D0E00E9452012097E1F30E94DC
:100620000000F9CFEE0FFF1F0590F491E02D099423
:1006300010E0C4ECD0E004C0FE010E941403229636
:0A064000C63CD107C9F7F894FFCFBC
:00000001FF
